:100000000C942A000C9447000C94A3030C94470012
:100010000C9447000C9447000C9447000C94470044
:100020000C9447000C9447000C9447000C94470034
:100030000C9447000C9447000C9447000C94470024
:100040000C9447000C9447000C9447000C94470014
:100050000C94470011241FBECFE5D8E0DEBFCDBF12
:1000600011E0A0E6B0E0E2E1FEE002C005900D92F2
:10007000A237B107D9F721E0A2E7B1E001C01D9294
:10008000AE37B207E1F70E94B7030C9407070C9450
:100090000000672B09F0DFC0009721F48BB38E7F3F
:1000A0008BBB08958130910521F48BB38D7F8BBB81
:1000B00008958230910521F48BB38B7F8BBB08951B
:1000C0008330910521F48BB3877F8BBB08958430F7
:1000D000910521F48BB38F7E8BBB089585309105FC
:1000E00021F48BB38F7D8BBB08958630910521F46D
:1000F0008BB38F7B8BBB08958730910521F48BB335
:100100008F778BBB08958A30910521F488B38E7F59
:1001100088BB08958B30910521F488B38D7F88BB0F
:1001200008958C30910521F488B38B7F88BB0895A6
:100130008D30910521F488B3877F88BB08958E3078
:10014000910521F488B38F7E88BB08958F30910587
:1001500021F488B38F7D88BB08958031910521F407
:1001600088B38F7B88BB08958131910521F488B3D2
:100170008F7788BB08958431910521F485B38E7FF4
:1001800085BB08958531910521F485B38D7F85BBAD
:1001900008958631910521F485B38B7F85BB089541
:1001A0008731910521F485B3877F85BB0895883118
:1001B000910521F485B38F7E85BB08958931910522
:1001C00021F485B38F7D85BB08958A31910521F493
:1001D00085B38F7B85BB08958B31910521F485B361
:1001E0008F7785BB08958E31910521F482B38E7F80
:1001F00082BB08958F31910521F482B38D7F82BB3C
:1002000008958032910521F482B38B7F82BB0895DB
:100210008132910521F482B3877F82BB08958232B7
:10022000910521F482B38F7E82BB089583329105BC
:1002300021F482B38F7D82BB08958432910521F42D
:1002400082B38F7B82BB0895859709F0E1C082B3AA
:100250008F7782BB0895009721F48BB381608BBBAD
:1002600008958130910521F48BB382608BBB089592
:100270008230910521F48BB384608BBB0895833069
:10028000910521F48BB388608BBB08958430910570
:1002900021F48BB380618BBB08958530910521F4E7
:1002A0008BB380628BBB08958630910521F48BB3AC
:1002B00080648BBB08958730910521F48BB38068EF
:1002C0008BBB08958A30910521F488B3816088BB87
:1002D00008958B30910521F488B3826088BB08951E
:1002E0008C30910521F488B3846088BB08958D30EB
:1002F000910521F488B3886088BB08958E309105FC
:1003000021F488B3806188BB08958F30910521F472
:1003100088B3806288BB08958031910521F488B349
:10032000806488BB08958131910521F488B3806889
:1003300088BB08958431910521F485B3816085BB24
:1003400008958531910521F485B3826085BB0895B8
:100350008631910521F485B3846085BB089587318A
:10036000910521F485B3886085BB08958831910596
:1003700021F485B3806185BB08958931910521F40D
:1003800085B3806285BB08958A31910521F485B3D8
:10039000806485BB08958B31910521F485B3806815
:1003A00085BB08958E31910521F482B3816082BBB3
:1003B00008958F31910521F482B3826082BB089544
:1003C0008032910521F482B3846082BB089581322A
:1003D000910521F482B3886082BB08958232910531
:1003E00021F482B3806182BB08958332910521F4A8
:1003F00082B3806282BB08958432910521F482B376
:10040000806482BB0895859719F482B3806882BBAB
:100410000895CF93C82F80FF07C061E070E082E2AB
:1004200090E00E94490006C060E070E082E290E047
:100430000E944900C1FF07C061E070E083E290E0E4
:100440000E94490006C060E070E083E290E00E94F4
:100450004900C2FF07C061E070E084E290E00E94C2
:10046000490006C060E070E084E290E00E9449002C
:10047000C3FF07C061E070E085E290E00E944900A0
:1004800006C060E070E085E290E00E944900CF91F4
:100490000895CF93C82F60E070E08AE190E00E9459
:1004A00049008C2F0E94090261E070E08BE190E02E
:1004B0000E94490089EF90E00197F1F700C0000029
:1004C00060E070E08BE190E00E94490089EF90E0ED
:1004D0000197F1F700C00000CF91089580E00E94DD
:1004E000490281E00E9449020895CF93813061F46E
:1004F00080E8860FC62FCF7082958F700E944902C8
:100500008C2F0E9449020DC0823059F480EC860F76
:10051000C62FCF7082958F700E9449028C2F0E9447
:100520004902CF91089580E00E94090287E893E193
:100530000197F1F700C0000083E00E94490281EEBC
:1005400094E00197F1F700C0000083E00E944902A7
:100550008DEB9AE00197F1F700C0000083E00E9464
:10056000490282E00E94490282E00E94490288E03A
:100570000E94490280E00E9449028CE00E944902E8
:1005800080E00E94490286E00E9449020895CF93CC
:10059000DF93D82FDF70C82FC07F61E070E08AE161
:1005A00090E00E9449008C2F82958F700E94090272
:1005B00061E070E08BE190E00E94490089EF90E0FB
:1005C0000197F1F700C0000060E070E08BE190E07F
:1005D0000E94490089EF90E00197F1F700C0000008
:1005E0008D2F0E94090261E070E08BE190E00E9493
:1005F000490089EF90E00197F1F700C0000060E04A
:1006000070E08BE190E00E94490089EF90E0019753
:10061000F1F700C00000DF91CF9108950F931F9371
:10062000CF93DF938C01C0E0D0E003C00E94C702EB
:100630002196F801EC0FFD1F80818111F7CFDF912A
:10064000CF911F910F91089581E00E94490288E0A7
:100650000E944902089588E18AB986E880BD1BB8E6
:100660008BB1806C8BB989E189B910BC08955F9B0F
:10067000FECF8CB1089588B3816088BBB39B05C061
:1006800088B38E7F88BB81E30895B49B05C088B38F
:100690008E7F88BB84E30895B59B05C088B38E7FA9
:1006A00088BB87E30895B69B05C088B38E7F88BB5F
:1006B0008AE2089588B38E7F88BB88B3826088BB46
:1006C000B39B05C088B38D7F88BB82E30895B49B3C
:1006D00005C088B38D7F88BB85E30895B59B05C0B1
:1006E00088B38D7F88BB88E30895B69B05C088B327
:1006F0008D7F88BB80E3089588B38D7F88BB88B3E6
:10070000846088BBB39B05C088B38B7F88BB83E3C1
:100710000895B49B05C088B38B7F88BB86E308959A
:10072000B59B05C088B38B7F88BB89E30895B69BD2
:1007300005C088B38B7F88BB83E2089588B38B7F25
:1007400088BB80E008951F920F920FB60F9211247C
:100750008F939F9381E090E0909373018093720157
:100760009F918F910F900FBE0F901F901895CF9271
:10077000DF92EF92FF920F931F93CF93DF93CDB74A
:10078000DEB72C970FB6F894DEBF0FBECDBF86EF55
:1007900081BB87E087BB8FEF84BB80E88BBF85B7C9
:1007A000837F85BF78940E942B0388E389878A879B
:1007B0008B878C870E94930282B3846082BBE12C7A
:1007C000F12C0E946E028091720190917301892B2D
:1007D00099F0B6C10E943703E1E0F0E0EC0FFD1F95
:1007E000EE0DFF1D80838FE493EC0197F1F700C0BD
:1007F00000009FEFE91AF90A24E0E216F10454F32D
:10080000B79BDFCF87EA91E60197F1F700C00000C0
:1008100080E690E00E940E039FE32DE083E091507C
:1008200020408040E1F700C000000E946E029FE976
:1008300026E881E0915020408040E1F700C00000B0
:100840000E946E020E946E0281E790E00E940E03F9
:1008500060E082E00E9475028FE493EC0197F1F76B
:1008600000C00000C12CD12CE12CF12C81C00E94D1
:100870003B038823B9F00E943B03E5E0F0E0EC0F76
:10088000FD1FEE0DFF1D80830E94C7029FE926E831
:1008900081E0915020408040E1F700C000009FEFD0
:1008A000E91AF90A24E0E216F1040CF30E946E0240
:1008B00000E010E056C0E1E0F0E0EC0FFD1FE00FBB
:1008C000F11F9081E5E0F0E0EC0FFD1FE00FF11F5C
:1008D0008081981709F443C08FEFC81AD80A81E8BD
:1008E00090E00E940E039FE32DE083E091502040B2
:1008F0008040E1F700C000000E946E0292E0C9163D
:10090000D10469F482B38B7F82BB87EA91E60197B9
:10091000F1F700C0000082B3846082BB26C081E989
:1009200090E00E940E039FE32DE083E09150204071
:100930008040E1F700C000000E946E0281E790E075
:100940000E940E0360E082E00E9475028FE493EC47
:100950000197F1F700C00000E12CF12C06C00F5FF9
:100960001F4F043011050CF4A6CF0430110529F0F7
:1009700092E0C916D1040CF495CF0430110509F0AA
:10098000DAC08CE990E00E940E0385B3816085BBDC
:1009900085B38D7F85BB2FEB87E299E021508040A6
:1009A0009040E1F700C0000085B38C7F85BB2FE944
:1009B00086E891E0215080409040E1F700C00000BF
:1009C00060E082E00E9475028EEA90E00E940E03D1
:1009D0002FEF80E792E0215080409040E1F700C087
:1009E00000000E946E028EEB90E00E940E03C899F8
:1009F00010C080917A0190917B01019690937B01C8
:100A000080937A010E946E0287EC90E00E940E03B0
:100A100035C0C99910C080917801909179010196F3
:100A200090937901809378010E946E028EED90E0A0
:100A30000E940E0323C0CA9910C080917601909144
:100A40007701019690937701809376010E946E0260
:100A500085EF90E00E940E0311C0CB99C8CF809122
:100A600074019091750101969093750180937401C2
:100A70000E946E028CE091E00E940E032FE788E353
:100A800091E0215080409040E1F700C00000E12C4F
:100A9000F12C0BC00E94240387EA91E60197F1F73D
:100AA00000C000009FEFE91AF90A2AE0E216F104FB
:100AB00088F38FE493EC0197F1F700C000000E94E7
:100AC0006E0283E291E00E940E039FE728E381E03B
:100AD000915020408040E1F700C00000E12CF12C53
:100AE0000BC087EA91E60197F1F700C000000E9471
:100AF00024039FEFE91AF90A24E0E216F1048CF3CB
:100B000085B3826085BB85B38E7F85BB8FEB97E213
:100B100029E0815090402040E1F700C0000085B3FB
:100B20008C7F85BB8FE996E821E081509040204082
:100B3000E1F700C000000E946E02E12CF12C41CED2
:100B40008091720190917301892B09F43ACE0E9431
:100B50006E0288E391E00E940E038FE39DE023E0A4
:100B6000815090402040E1F700C000000E946E02DA
:100B700085E491E00E940E0360E082E00E9475022D
:100B80008FE493EC0197F1F700C0000000E010E063
:100B90001AC00E943B038823B1F00E943B03E5E0AA
:100BA000F0E0EC0FFD1FE00FF11F80830E94C702F1
:100BB0009FE926E881E0915020408040E1F700C0A5
:100BC00000000F5F1F4F043011051CF30E946E02DE
:100BD00000E010E020C0E9E0F0E0EC0FFD1FE00FC6
:100BE000F11F9081E5E0F0E0EC0FFD1FE00FF11F39
:100BF0008081981771F081E890E00E940E039FE3D6
:100C00002DE083E0915020408040E1F700C00000DB
:100C100005C00F5F1F4F04301105ECF204301105C1
:100C200009F0AFC08CE990E00E940E0385B38160AB
:100C300085BB85B38D7F85BB9FEB27E289E0915013
:100C400020408040E1F700C0000085B38C7F85BB69
:100C50009FE926E881E0915020408040E1F700C004
:100C600000000E946E0286E591E00E940E03CC997E
:100C7000FECF0E946E0282E691E00E940E03609118
:100C80007C0170917D014AE080917A0190917B0115
:100C90000E94D20680917C0190917D010E940E03FA
:100CA00068E081E00E94750286E691E00E940E03F2
:100CB00060917C0170917D014AE080917801909172
:100CC00079010E94D20680917C0190917D010E9461
:100CD0000E0360E082E00E9475028AE691E00E94C5
:100CE0000E0360917C0170917D014AE08091760154
:100CF000909177010E94D20680917C0190917D01B4
:100D00000E940E0368E082E00E9475028EE691E088
:100D10000E940E0360917C0170917D014AE08091F8
:100D20007401909175010E94D20680917C0190918E
:100D30007D010E940E039FE72AE186E0915020404A
:100D40008040E1F700C0000085B3826085BB85B3B9
:100D50008E7F85BB9FEB27E289E091502040804049
:100D6000E1F700C0000085B38C7F85BB9FE926E8D2
:100D700081E0915020408040E1F700C000000E94D7
:100D80006E0280E090E02C960FB6F894DEBF0FBEA6
:100D9000CDBFDF91CF911F910F91FF90EF90DF902A
:100DA000CF900895BB274A3031F4992322F4BDE255
:100DB000909581959F4F0C94DE06BB27FB0155272C
:100DC000AA27880F991FAA1FA41710F0A41B8395A8
:100DD0005051B9F7A05DAA3308F0A95DA19300971F
:100DE00079F7B111B1931192CB010C94F706DC01A4
:100DF000FC01672F71917723E1F7329704C07C9152
:100E00006D9370836291AE17BF07C8F30895F8948D
:020E1000FFCF12
:100E12004D6F74696F6E20446574656374656421F7
:100E220000596F75722050617373636F64653A2065
:100E32000057726F6E672050617373636F64652130
:100E42000054727920416761696E2100436F7272AA
:100E52006563742050617373636F64652E00507212
:100E62006F6365656420546F20566F746500566F1A
:100E72007465204E6F7700596F7520766F746564C4
:100E820020666F72204F7074696F6E204100596F37
:100E92007520766F74656420666F72204F70746976
:100EA2006F6E204200596F7520766F7465642066FC
:100EB2006F72204F7074696F6E204300596F7520F6
:100EC200766F74656420666F72204F7074696F6EFE
:100ED2002044005468616E6B20596F7520466F7212
:100EE20020566F74696E6700566F74696E6720458D
:100EF2006E6465640041646D696E20506173736352
:100F02006F64653A200053686F7720566F7465737B
:100F12003F00413A2000423A2000433A2000443A3E
:020F22002000AD
:00000001FF
