:100000000C94A7000C94C4000C94E6030C94C40058
:100010000C94C4000C94C4000C94C4000C94C40050
:100020000C94C4000C94C4000C94C4000C94C40040
:100030000C94C4000C94C4000C94C4000C94C40030
:100040000C94C4000C94C4000C94C4000C94C40020
:100050000C94C40000407A10F35A00A0724E1809A4
:100060000010A5D4E80000E87648170000E40B541F
:10007000020000CA9A3B000000E1F50500008096EE
:100080009800000040420F000000A0860100000020
:10009000102700000000E8030000000064000000DA
:1000A00000000A00000000000100000000002C76A3
:1000B000D888DC674F0823DFC1DFAE59E1B1B796BE
:1000C000E5E3E453C63AE651997696E8E6C284261B
:1000D000EB898C9B62ED407C6FFCEFBC9C9F40F2F7
:1000E000BAA56FA5F490055A2AF75C936B6CF96773
:1000F0006DC11BFCE0E40D47FEF520E6B500D0ED38
:10010000902E0300943577050080841E080000209F
:100110004E0A000000C80C333333330F986E12833D
:100120001141EF8D2114893BE65516CFFEE6DB1811
:10013000D1844B381BF77C1D901DA4BBE4242032D6
:1001400084725E228100C9F124ECA1E53D271124CF
:100150001FBECFE5D8E0DEBFCDBF11E0A0E6B0E026
:10016000E4E8F5E102C005900D92AA39B107D9F78C
:1001700021E0AAE9B1E001C01D92AC3AB207E1F773
:100180000E94F4030C94C00A0C940000672B09F041
:10019000DFC0009721F48BB38E7F8BBB0895813035
:1001A000910521F48BB38D7F8BBB0895823091052F
:1001B00021F48BB38B7F8BBB08958330910521F4A1
:1001C0008BB3877F8BBB08958430910521F48BB36B
:1001D0008F7E8BBB08958530910521F48BB38F7D85
:1001E0008BBB08958630910521F48BB38F7B8BBB3D
:1001F00008958730910521F48BB38F778BBB0895D9
:100200008A30910521F488B38E7F88BB08958B30A6
:10021000910521F488B38D7F88BB08958C309105BA
:1002200021F488B38B7F88BB08958D30910521F42C
:1002300088B3877F88BB08958E30910521F488B3F9
:100240008F7E88BB08958F30910521F488B38F7D10
:1002500088BB08958031910521F488B38F7B88BBDA
:1002600008958131910521F488B38F7788BB089573
:100270008431910521F485B38E7F85BB0895853146
:10028000910521F485B38D7F85BB08958631910555
:1002900021F485B38B7F85BB08958731910521F4C7
:1002A00085B3877F85BB08958831910521F485B397
:1002B0008F7E85BB08958931910521F485B38F7DAB
:1002C00085BB08958A31910521F485B38F7B85BB69
:1002D00008958B31910521F485B38F7785BB0895FF
:1002E0008E31910521F482B38E7F82BB08958F31C8
:1002F000910521F482B38D7F82BB089580329105F0
:1003000021F482B38B7F82BB08958132910521F461
:1003100082B3877F82BB08958232910521F482B334
:100320008F7E82BB08958332910521F482B38F7D45
:1003300082BB08958432910521F482B38F7B82BB06
:100340000895859709F0E1C082B38F7782BB089545
:10035000009721F48BB381608BBB089581309105A8
:1003600021F48BB382608BBB08958230910521F418
:100370008BB384608BBB08958330910521F48BB3DC
:1003800088608BBB08958430910521F48BB3806124
:100390008BBB08958530910521F48BB380628BBBB4
:1003A00008958630910521F48BB380648BBB08954A
:1003B0008730910521F48BB380688BBB08958A3018
:1003C000910521F488B3816088BB08958B30910535
:1003D00021F488B3826088BB08958C30910521F4A4
:1003E00088B3846088BB08958D30910521F488B36B
:1003F000886088BB08958E30910521F488B38061B0
:1004000088BB08958F30910521F488B3806288BB42
:1004100008958031910521F488B3806488BB0895E4
:100420008131910521F488B3806888BB08958431B7
:10043000910521F485B3816085BB089585319105CF
:1004400021F485B3826085BB08958631910521F43E
:1004500085B3846085BB08958731910521F485B308
:10046000886085BB08958831910521F485B380614A
:1004700085BB08958931910521F485B3806285BBE0
:1004800008958A31910521F485B3806485BB089570
:100490008B31910521F485B3806885BB08958E3139
:1004A000910521F482B3816082BB08958F3191055B
:1004B00021F482B3826082BB08958032910521F4D9
:1004C00082B3846082BB08958132910521F482B3A6
:1004D000886082BB08958232910521F482B38061E5
:1004E00082BB08958332910521F482B3806282BB7E
:1004F00008958432910521F482B3806482BB08950B
:10050000859719F482B3806882BB0895CF93C82F72
:1005100080FF07C061E070E08EE090E00E94C600BE
:1005200006C060E070E08EE090E00E94C600C1FF6F
:1005300007C061E070E08FE090E00E94C60006C056
:1005400060E070E08FE090E00E94C600C2FF07C04C
:1005500061E070E080E190E00E94C60006C060E0CB
:1005600070E080E190E00E94C600C3FF07C061E038
:1005700070E081E190E00E94C60006C060E070E09B
:1005800081E190E00E94C600CF910895CF93C82FDB
:1005900060E070E08AE090E00E94C6008C2F0E942C
:1005A000860261E070E08BE090E00E94C60089EF77
:1005B00090E00197F1F700C0000060E070E08BE090
:1005C00090E00E94C60089EF90E00197F1F700C02B
:1005D0000000CF91089580E00E94C60281E00E9451
:1005E000C6020895CF93813061F480E8860FC62F4C
:1005F000CF7082958F700E94C6028C2F0E94C60217
:100600000DC0823059F480EC860FC62FCF708295D2
:100610008F700E94C6028C2F0E94C602CF9108954F
:1006200080E00E94860287E893E10197F1F700C01D
:10063000000083E00E94C60281EE94E00197F1F78A
:1006400000C0000083E00E94C6028DEB9AE0019793
:10065000F1F700C0000083E00E94C60282E00E9421
:10066000C60282E00E94C60288E00E94C60280E0C4
:100670000E94C6028CE00E94C60280E00E94C60270
:1006800086E00E94C6020895CF93DF93D82FDF70D3
:10069000C82FC07F61E070E08AE090E00E94C60051
:1006A0008C2F82958F700E94860261E070E08BE053
:1006B00090E00E94C60089EF90E00197F1F700C03A
:1006C000000060E070E08BE090E00E94C60089EFDF
:1006D00090E00197F1F700C000008D2F0E94860284
:1006E00061E070E08BE090E00E94C60089EF90E04E
:1006F0000197F1F700C0000060E070E08BE090E04F
:100700000E94C60089EF90E00197F1F700C0000059
:10071000DF91CF9108950F931F93CF93DF938C01B7
:10072000C0E0D0E003C00E9444032196F801EC0F22
:10073000FD1F80818111F7CFDF91CF911F910F9124
:10074000089581E00E94C60288E00E94C6020895D2
:1007500088E18AB986E880BD1BB88BB1806C8BB903
:1007600089E189B910BC089580EC87B987E886B91A
:10077000089586B1806486B93699FECF84B165B19B
:10078000637070E0762F6627682B072E000C880BAD
:10079000990B0E942E062AE037ED43E250E40E94B6
:1007A0006E0620E030E040E85AE30E946E0620E04A
:1007B00030E048EC52E40E946E0608955F9BFECF45
:1007C0008CB108955D9BFECF8CB908951F920F9256
:1007D0000FB60F92112410929B0110929A010F9064
:1007E0000FBE0F901F901895CF92DF92EF92FF925D
:1007F0000F931F93CF93DF93CDB7DEB763970FB6F9
:10080000F894DEBF0FBECDBF86E781BB8FEF87BBFD
:100810001ABA80E88BBF85B7837F85BF78940E9422
:1008200010030E94A8030E94B40380919A01909142
:100830009B01892B19F08799F8CFF7C10E94EB0231
:100840008BEB90E00E948B032FE738E381E021508F
:1008500030408040E1F700C0000000E010E00AC036
:100860000E94A1038FE493EC0197F1F700C0000010
:100870000F5F1F4F083011059CF39FE32DE033E01D
:10088000915020403040E1F700C000000E94EB0290
:1008900082ED90E00E948B038FE39DE023E0815086
:1008A00090402040E1F700C0000060E082E00E943C
:1008B000F2020E94B9036B017C018E010F5F1F4F92
:1008C00022E044E00E947807C8010E948B033FE7C2
:1008D0008AE196E0315080409040E1F700C000008E
:1008E00020E030E047EC52E4C701B6010E946906FF
:1008F00088230CF441C00E94EB028FED90E00E942F
:100900008B0300E010E00AC00E94A1038FE493EC87
:100910000197F1F700C000000F5F1F4F083011056D
:100920009CF39FE32DE033E0915020403040E1F70D
:1009300000C000000E94EB0286EF90E00E948B0353
:1009400000E010E00AC00E94A1038FE493EC01973D
:10095000F1F700C000000F5F1F4F083011059CF336
:100960000E94EB029FEF24E33CE091502040304096
:10097000E1F700C0000059CF0E94EB0289E091E04E
:100980000E948B038FE996E821E08150904020403F
:10099000E1F700C0000061E082E00E94F20287E11E
:1009A00091E00E948B033FE986E891E0315080405E
:1009B0009040E1F700C000000E94EB0280E291E06D
:1009C0000E948B0360E082E00E94F202E12CF12C95
:1009D00001E010E00E94DE03F801319726E030E0EC
:1009E0002C0F3D1FE20FF31F80830E944403609190
:1009F000AA007091AB00061717071CF40F5F1F4F7A
:100A0000E9CF0617170709F054C04AC0CA01880F7A
:100A1000991F880F991F880F991FFA01EE0FFF1F6A
:100A2000E80FF91FEC59FF4FE20FF31F9081E6E04A
:100A3000F0E0EC0FFD1FE20FF31F8081981308C058
:100A40002F5F3F4F02C020E030E026173707F4F257
:100A50002617370711F5FA01EE0FFF1FE256FE4F7A
:100A600080819181009769F4440F551FFA01E25685
:100A7000FE4F81E090E091838083EE24E394F12C9B
:100A800018C0892B51F081E090E090939D018093F4
:100A90009C01EE24E394F12C0CC04F5F5F4F02C029
:100AA00040E050E08091AC009091AD0048175907AC
:100AB00054F2E114F104C1F40E94EB028FE291E0E0
:100AC0000E948B0360E082E00E94F2028AE391E0E0
:100AD0000E948B033FE986E891E0315080409040CE
:100AE000E1F700C00000A1CE21E0E216F10409F018
:100AF00071CF3FE58AEE90E0315080409040E1F7C1
:100B000000C000000E94EB0280919C0190919D0129
:100B1000892B29F18BE491E00E948B032FE33DE0C8
:100B200083E0215030408040E1F700C0000060E0E9
:100B300082E00E94F2028BE591E00E948B039FE12C
:100B400021EA37E0915020403040E1F700C000003A
:100B50000E94EB0210929D0110929C0166CE89E6E4
:100B600091E00E948B038FE79AE126E0815090404C
:100B70002040E1F700C000000E94EB020E94E40761
:100B800068E273E20E94500788519C4F20E030E0F9
:100B900010C06AE070E00E945007E0E1F0E0EC0F66
:100BA000FD1FE20FF31F805D8083862F972F2F5F3D
:100BB0003F4F009771F789E791E00E948B0360E057
:100BC00082E00E94F20203E010E015C0E0E1F0E0F4
:100BD000EC0FFD1FE00FF11FF0808F2D0E944403EA
:100BE00087EA91E60197F1F700C000008F2D0E947F
:100BF000E203015011090F3F9FEF190739F72FE367
:100C00003DE083E0215030408040E1F700C000002B
:100C10000E94EB028AE891E00E948B0381E090E061
:100C200090939B0180939A0100CE0E94EB028EEA82
:100C300090E00E948B0380E090E063960FB6F894FA
:100C4000DEBF0FBECDBFDF91CF911F910F91FF90FF
:100C5000EF90DF90CF900895E89409C097FB3EF4A1
:100C600090958095709561957F4F8F4F9F4F9923F9
:100C7000A9F0F92F96E9BB279395F6958795779577
:100C80006795B795F111F8CFFAF4BB0F11F460FF37
:100C90001BC06F5F7F4F8F4F9F4F16C0882311F08F
:100CA00096E911C0772321F09EE8872F762F05C0A3
:100CB000662371F096E8862F70E060E02AF09A953E
:100CC000660F771F881FDAF7880F9695879597F933
:100CD00008950E94DB0608F48FEF08950E948106B4
:100CE0000C9416070E94080738F00E940F0720F0A6
:100CF000952311F00C94FF060C94050711240C9415
:100D00004A070E94270770F3959FC1F3950F50E0A3
:100D1000551F629FF001729FBB27F00DB11D639FAD
:100D2000AA27F00DB11DAA1F649F6627B00DA11D53
:100D3000661F829F2227B00DA11D621F739FB00DF9
:100D4000A11D621F839FA00D611D221F749F332769
:100D5000A00D611D231F849F600D211D822F762F02
:100D60006A2F11249F5750409AF0F1F088234AF0DF
:100D7000EE0FFF1FBB1F661F771F881F915050404B
:100D8000A9F79E3F510580F00C94FF060C944A078A
:100D90005F3FE4F3983ED4F3869577956795B795D2
:100DA000F795E7959F5FC1F7FE2B880F911D9695EC
:100DB000879597F90895990F0008550FAA0BE0E859
:100DC000FEEF16161706E807F907C0F0121613060D
:100DD000E407F50798F0621B730B840B950B39F44D
:100DE0000A2661F0232B242B252B21F408950A26B3
:100DF00009F4A140A6958FEF811D811D089597F9F3
:100E00009F6780E870E060E008959FEF80EC0895B0
:100E100000240A94161617061806090608950024D9
:100E20000A9412161306140605060895092E039453
:100E3000000C11F4882352F0BB0F40F4BF2B11F4C7
:100E400060FF04C06F5F7F4F8F4F9F4F089557FD26
:100E50009058440F551F59F05F3F71F04795880F28
:100E600097FB991F61F09F3F79F0879508951216BF
:100E700013061406551FF2CF4695F1DF08C016166B
:100E800017061806991FF1CF86957105610508941C
:100E90000895E894BB2766277727CB0197F9089533
:100EA00097FB072E16F4009407D077FD09D00E9417
:100EB000640707FC05D03EF4909581959F4F0895F7
:100EC000709561957F4F0895AA1BBB1B51E107C028
:100ED000AA1FBB1FA617B70710F0A61BB70B881FCA
:100EE000991F5A95A9F780959095BC01CD01089559
:100EF000EF920F931F93CF93DF93E80147FD02C05A
:100F000034E001C034E1042E000C550B57FF03C040
:100F1000519541955109E32E022F242FAE010E94D5
:100F2000F407CE01DF91CF911F910F91EF900895BB
:100F30008F929F92AF92BF92CF92DF92EF92FF92E9
:100F4000CF93DF93EC01688179818A819B81611560
:100F500071058105910521F464E279ED8BE597E057
:100F60002DE133EF41E050E00E94260A49015A0189
:100F70009B01AC01A7EAB1E40E94450A6B017C0128
:100F8000ACEEB4EFA50194010E94530ADC01CB0141
:100F90008C0D9D1DAE1DBF1DB7FF03C00197A1099C
:100FA000B04888839983AA83BB839F77DF91CF91D1
:100FB000FF90EF90DF90CF90BF90AF909F908F9079
:100FC00008950E949807089580E690E00E9498078F
:100FD0000895A0E0B0E08093600090936100A0933A
:100FE0006200B09363000895A9E0B0E0EAEFF7E093
:100FF0000C945E0A6A01122FB02E2BE3201720F00A
:10100000FF24F394F00E02C02CE3F22E0F2D27E004
:10101000AE014F5F5F4F0E944E09BC014981842F92
:101020008970813031F0E1FC06C0E0FE06C090E23C
:1010300005C09DE203C09BE201C090E05E2D5071AF
:1010400043FF3CC0911102C083E001C084E08117DE
:1010500018F4212F281B01C020E051110BC0F6010C
:10106000822F30E2882319F031938150FBCFC20EDA
:10107000D11C20E0992329F0D6019C93F6013196EA
:101080006F01C6010396E2FE0AC03EE4D6013C931E
:1010900041E411964C93119712963C9306C03EE69C
:1010A000F601308341E641833283FC01322F40E276
:1010B000332309F442C041933150FACF42FF44C078
:1010C000911102C083E001C084E0811718F4212F40
:1010D000281B01C020E051110BC0F601822F30E225
:1010E000882319F031938150FBCFC20ED11C20E030
:1010F000992329F0D6019C93F60131966F01C60120
:101100000396E2FE0BC039E4D6013C933EE411960F
:101110003C93119736E412963C9307C039E6F601EA
:1011200030833EE6318336E63283FC01322F40E2E3
:10113000332319F041933150FBCFFC01E20FF11D35
:1011400010828EEF9FEFA6C021E030E0911102C027
:1011500020E030E0161617061CF4FB01319602C0A1
:10116000E1E0F0E02E0F3F1FBB2021F0EB2DF0E07F
:10117000319602C0E0E0F0E02E0F3F1FE12FF0E0DB
:101180002E173F071CF4121B212F01C020E08E2DCB
:10119000887159F4F601822F30E2882319F03193D7
:1011A0008150FBCFC20ED11C20E0992329F0D6013B
:1011B0009C93F60131966F0151110BC0F601822FFD
:1011C00090E3882319F091938150FBCFC20ED11C7C
:1011D00020E00F2D060F9A81342F307144FF03C099
:1011E000913309F40150101624F4093018F008E086
:1011F00001C001E0AB0177FF02C040E050E0FB011D
:10120000E41BF50BA1E0B0E0AC0FBD1FEA0FFB1F24
:101210008EE2A82E4B01801A91080B2D10E011953B
:10122000019511094F3FBFEF5B0721F4D601AC9246
:1012300011966D01641775072CF08416950614F449
:10124000818101C080E3415051093196D601119648
:101250007D014017510724F0D6018C936701E2CF3E
:101260006417750739F4963320F4953319F4311166
:1012700001C081E3F6018083F701822F90E2882389
:1012800019F091938150FBCFF701E20FF11D10820D
:1012900080E090E02996ECE00C947A0A283008F07F
:1012A00027E03327DA01990F311D87FD9160009601
:1012B0006105710539F432602E5F3D9330E32A9564
:1012C000E1F708959F3F30F080387105610509F01E
:1012D0003C5F3C5F3D93913008F08068911DDF9347
:1012E000CF931F930F93FF92EF92192F987F9695AC
:1012F000E92F96959695E90FFF27E255FF4F99271D
:101300003327EE24FF24A701E701059008940794F2
:1013100028F4360FE71EF81E491F511D660F771F70
:10132000881F991F0694A1F70590079428F4E70EEB
:10133000F81E491F561FC11D770F881F991F661F72
:101340000694A1F70590079428F4F80E491F561F3C
:10135000C71FD11D880F991F661F771F0694A1F71D
:101360000590079420F4490F561FC71FD81F990FE7
:10137000661F771F881F0694A9F784911095177030
:1013800041F0D695C79557954795F794E7941A95E8
:10139000C1F7E4E5F0E068941590159135916591F9
:1013A000959105907FE27395E118F10A430B560B76
:1013B000C90BD009C0F7E10CF11E431F561FC91F0E
:1013C000D01D7EF4703311F48A95E6CFE894015075
:1013D00030F0080F0AF40027021708F4202F239595
:1013E000022F7A3328F079E37D932A95E9F710C02C
:1013F0007D932A9589F60694979567953795179565
:101400001794E118F10A430B560BC90BD00998F059
:1014100023957E9173957A3308F070E37C932013C3
:10142000B8F77E9170617D9330F0839571E37D9381
:1014300070E32A95E1F71124EF90FF900F911F912F
:10144000CF91DF91992787FD90950895052E97FB01
:101450001EF400940E943D0A57FD07D00E948F0A97
:1014600007FC03D04EF40C943D0A509540953095FE
:1014700021953F4F4F4F5F4F089590958095709500
:1014800061957F4F8F4F9F4F08950E94B10AA59F8E
:10149000900DB49F900DA49F800D911D112408956F
:1014A000B7FF0C94450A0E94450A821B930B0895CE
:1014B0002F923F924F925F926F927F928F929F9264
:1014C000AF92BF92CF92DF92EF92FF920F931F9352
:1014D000CF93DF93CDB7DEB7CA1BDB0B0FB6F89403
:1014E000DEBF0FBECDBF09942A88398848885F8443
:1014F0006E847D848C849B84AA84B984C884DF80B4
:10150000EE80FD800C811B81AA81B981CE0FD11D97
:101510000FB6F894DEBF0FBECDBFED010895A1E276
:101520001A2EAA1BBB1BFD010DC0AA1FBB1FEE1F5D
:10153000FF1FA217B307E407F50720F0A21BB30BA8
:10154000E40BF50B661F771F881F991F1A9469F724
:1015500060957095809590959B01AC01BD01CF0180
:101560000895A29FB001B39FC001A39F700D811D7C
:101570001124911DB29F700D811D1124911D08959C
:04158000F894FFCF0D
:101584000100000031353031303230333033313501
:101594003031303230333034313530313032303331
:1015A4003035313530313032303330363135303119
:1015B4003032303330373135303130323033303807
:1015C400313530313032303330390A000700566F4C
:1015D40074696E6720456E64656400436865636B77
:1015E400696E672074656D70657261747572652EBD
:1015F4002E0054656D70657261747572653A00549D
:10160400656D7065726174757265206E6F74206E9D
:101614006F726D616C00596F752063616E27742061
:10162400766F7465206E6F770057616974696E67B1
:1016340020666F722020005246494420546167009E
:1016440052656164696E67205461672E2E2E0049CD
:1016540044206D617463683A20004E6F7420666F95
:10166400756E642E20526573657400546869732026
:10167400506572736F6E2048617300416C726561CE
:10168400647920566F746564004944206D61746305
:101694006820666F756E642100596F7572204C6FF7
:1016A400636B20436F64653A2000506C6561736519
:0A16B40020576169742E2E2E0000ED
:00000001FF
